{
  "_format": "hh-sol-artifact-1",
  "contractName": "NFT",
  "sourceName": "contracts/NFT.sol",
  "abi": [
    {
      "inputs": [],
      "stateMutability": "nonpayable",
      "type": "constructor"
    },
    {
      "anonymous": false,
      "inputs": [
        {
          "indexed": true,
          "internalType": "address",
          "name": "account",
          "type": "address"
        },
        {
          "indexed": true,
          "internalType": "address",
          "name": "operator",
          "type": "address"
        },
        {
          "indexed": false,
          "internalType": "bool",
          "name": "approved",
          "type": "bool"
        }
      ],
      "name": "ApprovalForAll",
      "type": "event"
    },
    {
      "anonymous": false,
      "inputs": [
        {
          "indexed": false,
          "internalType": "address",
          "name": "account",
          "type": "address"
        }
      ],
      "name": "Paused",
      "type": "event"
    },
    {
      "anonymous": false,
      "inputs": [
        {
          "indexed": true,
          "internalType": "bytes32",
          "name": "role",
          "type": "bytes32"
        },
        {
          "indexed": true,
          "internalType": "bytes32",
          "name": "previousAdminRole",
          "type": "bytes32"
        },
        {
          "indexed": true,
          "internalType": "bytes32",
          "name": "newAdminRole",
          "type": "bytes32"
        }
      ],
      "name": "RoleAdminChanged",
      "type": "event"
    },
    {
      "anonymous": false,
      "inputs": [
        {
          "indexed": true,
          "internalType": "bytes32",
          "name": "role",
          "type": "bytes32"
        },
        {
          "indexed": true,
          "internalType": "address",
          "name": "account",
          "type": "address"
        },
        {
          "indexed": true,
          "internalType": "address",
          "name": "sender",
          "type": "address"
        }
      ],
      "name": "RoleGranted",
      "type": "event"
    },
    {
      "anonymous": false,
      "inputs": [
        {
          "indexed": true,
          "internalType": "bytes32",
          "name": "role",
          "type": "bytes32"
        },
        {
          "indexed": true,
          "internalType": "address",
          "name": "account",
          "type": "address"
        },
        {
          "indexed": true,
          "internalType": "address",
          "name": "sender",
          "type": "address"
        }
      ],
      "name": "RoleRevoked",
      "type": "event"
    },
    {
      "anonymous": false,
      "inputs": [
        {
          "indexed": true,
          "internalType": "address",
          "name": "operator",
          "type": "address"
        },
        {
          "indexed": true,
          "internalType": "address",
          "name": "from",
          "type": "address"
        },
        {
          "indexed": true,
          "internalType": "address",
          "name": "to",
          "type": "address"
        },
        {
          "indexed": false,
          "internalType": "uint256[]",
          "name": "ids",
          "type": "uint256[]"
        },
        {
          "indexed": false,
          "internalType": "uint256[]",
          "name": "values",
          "type": "uint256[]"
        }
      ],
      "name": "TransferBatch",
      "type": "event"
    },
    {
      "anonymous": false,
      "inputs": [
        {
          "indexed": true,
          "internalType": "address",
          "name": "operator",
          "type": "address"
        },
        {
          "indexed": true,
          "internalType": "address",
          "name": "from",
          "type": "address"
        },
        {
          "indexed": true,
          "internalType": "address",
          "name": "to",
          "type": "address"
        },
        {
          "indexed": false,
          "internalType": "uint256",
          "name": "id",
          "type": "uint256"
        },
        {
          "indexed": false,
          "internalType": "uint256",
          "name": "value",
          "type": "uint256"
        }
      ],
      "name": "TransferSingle",
      "type": "event"
    },
    {
      "anonymous": false,
      "inputs": [
        {
          "indexed": false,
          "internalType": "string",
          "name": "value",
          "type": "string"
        },
        {
          "indexed": true,
          "internalType": "uint256",
          "name": "id",
          "type": "uint256"
        }
      ],
      "name": "URI",
      "type": "event"
    },
    {
      "anonymous": false,
      "inputs": [
        {
          "indexed": false,
          "internalType": "address",
          "name": "account",
          "type": "address"
        }
      ],
      "name": "Unpaused",
      "type": "event"
    },
    {
      "inputs": [],
      "name": "DEFAULT_ADMIN_ROLE",
      "outputs": [
        {
          "internalType": "bytes32",
          "name": "",
          "type": "bytes32"
        }
      ],
      "stateMutability": "view",
      "type": "function"
    },
    {
      "inputs": [],
      "name": "MINTER_ROLE",
      "outputs": [
        {
          "internalType": "bytes32",
          "name": "",
          "type": "bytes32"
        }
      ],
      "stateMutability": "view",
      "type": "function"
    },
    {
      "inputs": [],
      "name": "PAUSER_ROLE",
      "outputs": [
        {
          "internalType": "bytes32",
          "name": "",
          "type": "bytes32"
        }
      ],
      "stateMutability": "view",
      "type": "function"
    },
    {
      "inputs": [
        {
          "internalType": "address",
          "name": "account",
          "type": "address"
        },
        {
          "internalType": "uint256",
          "name": "id",
          "type": "uint256"
        }
      ],
      "name": "balanceOf",
      "outputs": [
        {
          "internalType": "uint256",
          "name": "",
          "type": "uint256"
        }
      ],
      "stateMutability": "view",
      "type": "function"
    },
    {
      "inputs": [
        {
          "internalType": "address[]",
          "name": "accounts",
          "type": "address[]"
        },
        {
          "internalType": "uint256[]",
          "name": "ids",
          "type": "uint256[]"
        }
      ],
      "name": "balanceOfBatch",
      "outputs": [
        {
          "internalType": "uint256[]",
          "name": "",
          "type": "uint256[]"
        }
      ],
      "stateMutability": "view",
      "type": "function"
    },
    {
      "inputs": [
        {
          "internalType": "address",
          "name": "account",
          "type": "address"
        },
        {
          "internalType": "uint256",
          "name": "id",
          "type": "uint256"
        },
        {
          "internalType": "uint256",
          "name": "value",
          "type": "uint256"
        }
      ],
      "name": "burn",
      "outputs": [],
      "stateMutability": "nonpayable",
      "type": "function"
    },
    {
      "inputs": [
        {
          "internalType": "address",
          "name": "account",
          "type": "address"
        },
        {
          "internalType": "uint256[]",
          "name": "ids",
          "type": "uint256[]"
        },
        {
          "internalType": "uint256[]",
          "name": "values",
          "type": "uint256[]"
        }
      ],
      "name": "burnBatch",
      "outputs": [],
      "stateMutability": "nonpayable",
      "type": "function"
    },
    {
      "inputs": [
        {
          "internalType": "bytes32",
          "name": "role",
          "type": "bytes32"
        }
      ],
      "name": "getRoleAdmin",
      "outputs": [
        {
          "internalType": "bytes32",
          "name": "",
          "type": "bytes32"
        }
      ],
      "stateMutability": "view",
      "type": "function"
    },
    {
      "inputs": [
        {
          "internalType": "bytes32",
          "name": "role",
          "type": "bytes32"
        },
        {
          "internalType": "uint256",
          "name": "index",
          "type": "uint256"
        }
      ],
      "name": "getRoleMember",
      "outputs": [
        {
          "internalType": "address",
          "name": "",
          "type": "address"
        }
      ],
      "stateMutability": "view",
      "type": "function"
    },
    {
      "inputs": [
        {
          "internalType": "bytes32",
          "name": "role",
          "type": "bytes32"
        }
      ],
      "name": "getRoleMemberCount",
      "outputs": [
        {
          "internalType": "uint256",
          "name": "",
          "type": "uint256"
        }
      ],
      "stateMutability": "view",
      "type": "function"
    },
    {
      "inputs": [
        {
          "internalType": "bytes32",
          "name": "role",
          "type": "bytes32"
        },
        {
          "internalType": "address",
          "name": "account",
          "type": "address"
        }
      ],
      "name": "grantRole",
      "outputs": [],
      "stateMutability": "nonpayable",
      "type": "function"
    },
    {
      "inputs": [
        {
          "internalType": "bytes32",
          "name": "role",
          "type": "bytes32"
        },
        {
          "internalType": "address",
          "name": "account",
          "type": "address"
        }
      ],
      "name": "hasRole",
      "outputs": [
        {
          "internalType": "bool",
          "name": "",
          "type": "bool"
        }
      ],
      "stateMutability": "view",
      "type": "function"
    },
    {
      "inputs": [
        {
          "internalType": "address",
          "name": "account",
          "type": "address"
        },
        {
          "internalType": "address",
          "name": "operator",
          "type": "address"
        }
      ],
      "name": "isApprovedForAll",
      "outputs": [
        {
          "internalType": "bool",
          "name": "",
          "type": "bool"
        }
      ],
      "stateMutability": "view",
      "type": "function"
    },
    {
      "inputs": [
        {
          "internalType": "address",
          "name": "to",
          "type": "address"
        },
        {
          "internalType": "uint256",
          "name": "id",
          "type": "uint256"
        },
        {
          "internalType": "uint256",
          "name": "amount",
          "type": "uint256"
        },
        {
          "internalType": "bytes",
          "name": "data",
          "type": "bytes"
        }
      ],
      "name": "mint",
      "outputs": [],
      "stateMutability": "nonpayable",
      "type": "function"
    },
    {
      "inputs": [
        {
          "internalType": "address",
          "name": "to",
          "type": "address"
        },
        {
          "internalType": "uint256[]",
          "name": "ids",
          "type": "uint256[]"
        },
        {
          "internalType": "uint256[]",
          "name": "amounts",
          "type": "uint256[]"
        },
        {
          "internalType": "bytes",
          "name": "data",
          "type": "bytes"
        }
      ],
      "name": "mintBatch",
      "outputs": [],
      "stateMutability": "nonpayable",
      "type": "function"
    },
    {
      "inputs": [],
      "name": "pause",
      "outputs": [],
      "stateMutability": "nonpayable",
      "type": "function"
    },
    {
      "inputs": [],
      "name": "paused",
      "outputs": [
        {
          "internalType": "bool",
          "name": "",
          "type": "bool"
        }
      ],
      "stateMutability": "view",
      "type": "function"
    },
    {
      "inputs": [
        {
          "internalType": "bytes32",
          "name": "role",
          "type": "bytes32"
        },
        {
          "internalType": "address",
          "name": "account",
          "type": "address"
        }
      ],
      "name": "renounceRole",
      "outputs": [],
      "stateMutability": "nonpayable",
      "type": "function"
    },
    {
      "inputs": [
        {
          "internalType": "bytes32",
          "name": "role",
          "type": "bytes32"
        },
        {
          "internalType": "address",
          "name": "account",
          "type": "address"
        }
      ],
      "name": "revokeRole",
      "outputs": [],
      "stateMutability": "nonpayable",
      "type": "function"
    },
    {
      "inputs": [
        {
          "internalType": "address",
          "name": "from",
          "type": "address"
        },
        {
          "internalType": "address",
          "name": "to",
          "type": "address"
        },
        {
          "internalType": "uint256[]",
          "name": "ids",
          "type": "uint256[]"
        },
        {
          "internalType": "uint256[]",
          "name": "amounts",
          "type": "uint256[]"
        },
        {
          "internalType": "bytes",
          "name": "data",
          "type": "bytes"
        }
      ],
      "name": "safeBatchTransferFrom",
      "outputs": [],
      "stateMutability": "nonpayable",
      "type": "function"
    },
    {
      "inputs": [
        {
          "internalType": "address",
          "name": "from",
          "type": "address"
        },
        {
          "internalType": "address",
          "name": "to",
          "type": "address"
        },
        {
          "internalType": "uint256",
          "name": "id",
          "type": "uint256"
        },
        {
          "internalType": "uint256",
          "name": "amount",
          "type": "uint256"
        },
        {
          "internalType": "bytes",
          "name": "data",
          "type": "bytes"
        }
      ],
      "name": "safeTransferFrom",
      "outputs": [],
      "stateMutability": "nonpayable",
      "type": "function"
    },
    {
      "inputs": [
        {
          "internalType": "address",
          "name": "operator",
          "type": "address"
        },
        {
          "internalType": "bool",
          "name": "approved",
          "type": "bool"
        }
      ],
      "name": "setApprovalForAll",
      "outputs": [],
      "stateMutability": "nonpayable",
      "type": "function"
    },
    {
      "inputs": [
        {
          "internalType": "bytes4",
          "name": "interfaceId",
          "type": "bytes4"
        }
      ],
      "name": "supportsInterface",
      "outputs": [
        {
          "internalType": "bool",
          "name": "",
          "type": "bool"
        }
      ],
      "stateMutability": "view",
      "type": "function"
    },
    {
      "inputs": [],
      "name": "unpause",
      "outputs": [],
      "stateMutability": "nonpayable",
      "type": "function"
    },
    {
      "inputs": [
        {
          "internalType": "uint256",
          "name": "",
          "type": "uint256"
        }
      ],
      "name": "uri",
      "outputs": [
        {
          "internalType": "string",
          "name": "",
          "type": "string"
        }
      ],
      "stateMutability": "view",
      "type": "function"
    }
  ],
  "bytecode": "0x60806040523480156200001157600080fd5b506040518060400160405280601f81526020017f687474703a2f2f6c6f63616c686f73743a333030302f7b69647d2e6a736f6e00815250806200005a816200012360201b60201c565b506000600560006101000a81548160ff0219169083151502179055506200009a6000801b6200008e6200013f60201b60201c565b6200014760201b60201c565b620000db7f9f2df0fed2c77648de5860a4cc508cd0818c85b8b8a1ab4ceeef8d981c8956a6620000cf6200013f60201b60201c565b6200014760201b60201c565b6200011c7f65d7a28e3265b37a6474929f336521b332c1681b933f6cb9f3376673440d862a620001106200013f60201b60201c565b6200014760201b60201c565b50620004ea565b80600490805190602001906200013b929190620003d5565b5050565b600033905090565b6200015982826200015d60201b60201c565b5050565b620001748282620001a560201b62000f111760201c565b620001a081600160008581526020019081526020016000206200029660201b62000ff11790919060201c565b505050565b620001b78282620002ce60201b60201c565b6200029257600160008084815260200190815260200160002060000160008373ffffffffffffffffffffffffffffffffffffffff1673ffffffffffffffffffffffffffffffffffffffff16815260200190815260200160002060006101000a81548160ff021916908315150217905550620002376200013f60201b60201c565b73ffffffffffffffffffffffffffffffffffffffff168173ffffffffffffffffffffffffffffffffffffffff16837f2f8788117e7eff1d82e926ec794901d17c78024a50270940304540a733656f0d60405160405180910390a45b5050565b6000620002c6836000018373ffffffffffffffffffffffffffffffffffffffff1660001b6200033860201b60201c565b905092915050565b600080600084815260200190815260200160002060000160008373ffffffffffffffffffffffffffffffffffffffff1673ffffffffffffffffffffffffffffffffffffffff16815260200190815260200160002060009054906101000a900460ff16905092915050565b60006200034c8383620003b260201b60201c565b620003a7578260000182908060018154018082558091505060019003906000526020600020016000909190919091505582600001805490508360010160008481526020019081526020016000208190555060019050620003ac565b600090505b92915050565b600080836001016000848152602001908152602001600020541415905092915050565b828054620003e39062000485565b90600052602060002090601f01602090048101928262000407576000855562000453565b82601f106200042257805160ff191683800117855562000453565b8280016001018555821562000453579182015b828111156200045257825182559160200191906001019062000435565b5b50905062000462919062000466565b5090565b5b808211156200048157600081600090555060010162000467565b5090565b600060028204905060018216806200049e57607f821691505b60208210811415620004b557620004b4620004bb565b5b50919050565b7f4e487b7100000000000000000000000000000000000000000000000000000000600052602260045260246000fd5b614e9680620004fa6000396000f3fe608060405234801561001057600080fd5b50600436106101725760003560e01c8063731133e9116100de578063ca15c87311610097578063e63ab1e911610071578063e63ab1e914610445578063e985e9c514610463578063f242432a14610493578063f5298aca146104af57610172565b8063ca15c873146103db578063d53913931461040b578063d547741f1461042957610172565b8063731133e91461031b5780638456cb59146103375780639010d07c1461034157806391d1485414610371578063a217fddf146103a1578063a22cb465146103bf57610172565b80632f2ff15d116101305780632f2ff15d1461026f57806336568abe1461028b5780633f4ba83a146102a75780634e1273f4146102b15780635c975abb146102e15780636b20c454146102ff57610172565b8062fdd58e1461017757806301ffc9a7146101a75780630e89341c146101d75780631f7fdffa14610207578063248a9ca3146102235780632eb2c2d614610253575b600080fd5b610191600480360381019061018c91906136c8565b6104cb565b60405161019e9190614247565b60405180910390f35b6101c160048036038101906101bc91906138db565b610595565b6040516101ce9190613f4f565b60405180910390f35b6101f160048036038101906101ec919061392d565b6105a7565b6040516101fe9190613f85565b60405180910390f35b610221600480360381019061021c91906135e1565b61063b565b005b61023d6004803603810190610238919061383a565b6106bd565b60405161024a9190613f6a565b60405180910390f35b61026d60048036038101906102689190613414565b6106dc565b005b61028960048036038101906102849190613863565b61077d565b005b6102a560048036038101906102a09190613863565b61079e565b005b6102af610821565b005b6102cb60048036038101906102c691906137ce565b61089b565b6040516102d89190613ef6565b60405180910390f35b6102e9610a4c565b6040516102f69190613f4f565b60405180910390f35b61031960048036038101906103149190613562565b610a63565b005b61033560048036038101906103309190613753565b610b00565b005b61033f610b82565b005b61035b6004803603810190610356919061389f565b610bfc565b6040516103689190613e19565b60405180910390f35b61038b60048036038101906103869190613863565b610c2b565b6040516103989190613f4f565b60405180910390f35b6103a9610c95565b6040516103b69190613f6a565b60405180910390f35b6103d960048036038101906103d4919061368c565b610c9c565b005b6103f560048036038101906103f0919061383a565b610cb2565b6040516104029190614247565b60405180910390f35b610413610cd6565b6040516104209190613f6a565b60405180910390f35b610443600480360381019061043e9190613863565b610cfa565b005b61044d610d1b565b60405161045a9190613f6a565b60405180910390f35b61047d600480360381019061047891906133d8565b610d3f565b60405161048a9190613f4f565b60405180910390f35b6104ad60048036038101906104a891906134d3565b610dd3565b005b6104c960048036038101906104c49190613704565b610e74565b005b60008073ffffffffffffffffffffffffffffffffffffffff168373ffffffffffffffffffffffffffffffffffffffff16141561053c576040517f08c379a000000000000000000000000000000000000000000000000000000000815260040161053390614027565b60405180910390fd5b6002600083815260200190815260200160002060008473ffffffffffffffffffffffffffffffffffffffff1673ffffffffffffffffffffffffffffffffffffffff16815260200190815260200160002054905092915050565b60006105a082611021565b9050919050565b6060600480546105b690614583565b80601f01602080910402602001604051908101604052809291908181526020018280546105e290614583565b801561062f5780601f106106045761010080835404028352916020019161062f565b820191906000526020600020905b81548152906001019060200180831161061257829003601f168201915b50505050509050919050565b61066c7f9f2df0fed2c77648de5860a4cc508cd0818c85b8b8a1ab4ceeef8d981c8956a6610667611103565b610c2b565b6106ab576040517f08c379a00000000000000000000000000000000000000000000000000000000081526004016106a290614127565b60405180910390fd5b6106b78484848461110b565b50505050565b6000806000838152602001908152602001600020600101549050919050565b6106e4611103565b73ffffffffffffffffffffffffffffffffffffffff168573ffffffffffffffffffffffffffffffffffffffff16148061072a575061072985610724611103565b610d3f565b5b610769576040517f08c379a0000000000000000000000000000000000000000000000000000000008152600401610760906140e7565b60405180910390fd5b6107768585858585611385565b5050505050565b610786826106bd565b61078f816116f6565b610799838361170a565b505050565b6107a6611103565b73ffffffffffffffffffffffffffffffffffffffff168173ffffffffffffffffffffffffffffffffffffffff1614610813576040517f08c379a000000000000000000000000000000000000000000000000000000000815260040161080a90614227565b60405180910390fd5b61081d828261173e565b5050565b6108527f65d7a28e3265b37a6474929f336521b332c1681b933f6cb9f3376673440d862a61084d611103565b610c2b565b610891576040517f08c379a000000000000000000000000000000000000000000000000000000000815260040161088890614167565b60405180910390fd5b610899611772565b565b606081518351146108e1576040517f08c379a00000000000000000000000000000000000000000000000000000000081526004016108d8906141c7565b60405180910390fd5b6000835167ffffffffffffffff811115610924577f4e487b7100000000000000000000000000000000000000000000000000000000600052604160045260246000fd5b6040519080825280602002602001820160405280156109525781602001602082028036833780820191505090505b50905060005b8451811015610a41576109eb85828151811061099d577f4e487b7100000000000000000000000000000000000000000000000000000000600052603260045260246000fd5b60200260200101518583815181106109de577f4e487b7100000000000000000000000000000000000000000000000000000000600052603260045260246000fd5b60200260200101516104cb565b828281518110610a24577f4e487b7100000000000000000000000000000000000000000000000000000000600052603260045260246000fd5b60200260200101818152505080610a3a906145e6565b9050610958565b508091505092915050565b6000600560009054906101000a900460ff16905090565b610a6b611103565b73ffffffffffffffffffffffffffffffffffffffff168373ffffffffffffffffffffffffffffffffffffffff161480610ab15750610ab083610aab611103565b610d3f565b5b610af0576040517f08c379a0000000000000000000000000000000000000000000000000000000008152600401610ae790614087565b60405180910390fd5b610afb838383611814565b505050565b610b317f9f2df0fed2c77648de5860a4cc508cd0818c85b8b8a1ab4ceeef8d981c8956a6610b2c611103565b610c2b565b610b70576040517f08c379a0000000000000000000000000000000000000000000000000000000008152600401610b6790614127565b60405180910390fd5b610b7c84848484611b31565b50505050565b610bb37f65d7a28e3265b37a6474929f336521b332c1681b933f6cb9f3376673440d862a610bae611103565b610c2b565b610bf2576040517f08c379a0000000000000000000000000000000000000000000000000000000008152600401610be990614187565b60405180910390fd5b610bfa611ce3565b565b6000610c238260016000868152602001908152602001600020611d8690919063ffffffff16565b905092915050565b600080600084815260200190815260200160002060000160008373ffffffffffffffffffffffffffffffffffffffff1673ffffffffffffffffffffffffffffffffffffffff16815260200190815260200160002060009054906101000a900460ff16905092915050565b6000801b81565b610cae610ca7611103565b8383611da0565b5050565b6000610ccf60016000848152602001908152602001600020611f0d565b9050919050565b7f9f2df0fed2c77648de5860a4cc508cd0818c85b8b8a1ab4ceeef8d981c8956a681565b610d03826106bd565b610d0c816116f6565b610d16838361173e565b505050565b7f65d7a28e3265b37a6474929f336521b332c1681b933f6cb9f3376673440d862a81565b6000600360008473ffffffffffffffffffffffffffffffffffffffff1673ffffffffffffffffffffffffffffffffffffffff16815260200190815260200160002060008373ffffffffffffffffffffffffffffffffffffffff1673ffffffffffffffffffffffffffffffffffffffff16815260200190815260200160002060009054906101000a900460ff16905092915050565b610ddb611103565b73ffffffffffffffffffffffffffffffffffffffff168573ffffffffffffffffffffffffffffffffffffffff161480610e215750610e2085610e1b611103565b610d3f565b5b610e60576040517f08c379a0000000000000000000000000000000000000000000000000000000008152600401610e5790614087565b60405180910390fd5b610e6d8585858585611f22565b5050505050565b610e7c611103565b73ffffffffffffffffffffffffffffffffffffffff168373ffffffffffffffffffffffffffffffffffffffff161480610ec25750610ec183610ebc611103565b610d3f565b5b610f01576040517f08c379a0000000000000000000000000000000000000000000000000000000008152600401610ef890614087565b60405180910390fd5b610f0c8383836121c1565b505050565b610f1b8282610c2b565b610fed57600160008084815260200190815260200160002060000160008373ffffffffffffffffffffffffffffffffffffffff1673ffffffffffffffffffffffffffffffffffffffff16815260200190815260200160002060006101000a81548160ff021916908315150217905550610f92611103565b73ffffffffffffffffffffffffffffffffffffffff168173ffffffffffffffffffffffffffffffffffffffff16837f2f8788117e7eff1d82e926ec794901d17c78024a50270940304540a733656f0d60405160405180910390a45b5050565b6000611019836000018373ffffffffffffffffffffffffffffffffffffffff1660001b61240a565b905092915050565b60007fd9b67a26000000000000000000000000000000000000000000000000000000007bffffffffffffffffffffffffffffffffffffffffffffffffffffffff1916827bffffffffffffffffffffffffffffffffffffffffffffffffffffffff191614806110ec57507f0e89341c000000000000000000000000000000000000000000000000000000007bffffffffffffffffffffffffffffffffffffffffffffffffffffffff1916827bffffffffffffffffffffffffffffffffffffffffffffffffffffffff1916145b806110fc57506110fb8261247a565b5b9050919050565b600033905090565b600073ffffffffffffffffffffffffffffffffffffffff168473ffffffffffffffffffffffffffffffffffffffff16141561117b576040517f08c379a000000000000000000000000000000000000000000000000000000000815260040161117290614207565b60405180910390fd5b81518351146111bf576040517f08c379a00000000000000000000000000000000000000000000000000000000081526004016111b6906141e7565b60405180910390fd5b60006111c9611103565b90506111da816000878787876124f4565b60005b84518110156112e05783818151811061121f577f4e487b7100000000000000000000000000000000000000000000000000000000600052603260045260246000fd5b602002602001015160026000878481518110611264577f4e487b7100000000000000000000000000000000000000000000000000000000600052603260045260246000fd5b6020026020010151815260200190815260200160002060008873ffffffffffffffffffffffffffffffffffffffff1673ffffffffffffffffffffffffffffffffffffffff16815260200190815260200160002060008282546112c691906143b5565b9250508190555080806112d8906145e6565b9150506111dd565b508473ffffffffffffffffffffffffffffffffffffffff16600073ffffffffffffffffffffffffffffffffffffffff168273ffffffffffffffffffffffffffffffffffffffff167f4a39dc06d4c0dbc64b70af90fd698a233a518aa5d07e595d983b8c0526c8f7fb8787604051611358929190613f18565b60405180910390a461136f8160008787878761250a565b61137e81600087878787612512565b5050505050565b81518351146113c9576040517f08c379a00000000000000000000000000000000000000000000000000000000081526004016113c0906141e7565b60405180910390fd5b600073ffffffffffffffffffffffffffffffffffffffff168473ffffffffffffffffffffffffffffffffffffffff161415611439576040517f08c379a0000000000000000000000000000000000000000000000000000000008152600401611430906140c7565b60405180910390fd5b6000611443611103565b90506114538187878787876124f4565b60005b845181101561165357600085828151811061149a577f4e487b7100000000000000000000000000000000000000000000000000000000600052603260045260246000fd5b6020026020010151905060008583815181106114df577f4e487b7100000000000000000000000000000000000000000000000000000000600052603260045260246000fd5b6020026020010151905060006002600084815260200190815260200160002060008b73ffffffffffffffffffffffffffffffffffffffff1673ffffffffffffffffffffffffffffffffffffffff16815260200190815260200160002054905081811015611581576040517f08c379a000000000000000000000000000000000000000000000000000000000815260040161157890614147565b60405180910390fd5b8181036002600085815260200190815260200160002060008c73ffffffffffffffffffffffffffffffffffffffff1673ffffffffffffffffffffffffffffffffffffffff16815260200190815260200160002081905550816002600085815260200190815260200160002060008b73ffffffffffffffffffffffffffffffffffffffff1673ffffffffffffffffffffffffffffffffffffffff168152602001908152602001600020600082825461163891906143b5565b925050819055505050508061164c906145e6565b9050611456565b508473ffffffffffffffffffffffffffffffffffffffff168673ffffffffffffffffffffffffffffffffffffffff168273ffffffffffffffffffffffffffffffffffffffff167f4a39dc06d4c0dbc64b70af90fd698a233a518aa5d07e595d983b8c0526c8f7fb87876040516116ca929190613f18565b60405180910390a46116e081878787878761250a565b6116ee818787878787612512565b505050505050565b61170781611702611103565b6126f9565b50565b6117148282610f11565b6117398160016000858152602001908152602001600020610ff190919063ffffffff16565b505050565b6117488282612796565b61176d816001600085815260200190815260200160002061287790919063ffffffff16565b505050565b61177a610a4c565b6117b9576040517f08c379a00000000000000000000000000000000000000000000000000000000081526004016117b090614007565b60405180910390fd5b6000600560006101000a81548160ff0219169083151502179055507f5db9ee0a495bf2e6ff9c91a7834c1ba4fdd244a5e8aa4e537bd38aeae4b073aa6117fd611103565b60405161180a9190613e19565b60405180910390a1565b600073ffffffffffffffffffffffffffffffffffffffff168373ffffffffffffffffffffffffffffffffffffffff161415611884576040517f08c379a000000000000000000000000000000000000000000000000000000000815260040161187b90614107565b60405180910390fd5b80518251146118c8576040517f08c379a00000000000000000000000000000000000000000000000000000000081526004016118bf906141e7565b60405180910390fd5b60006118d2611103565b90506118f2818560008686604051806020016040528060008152506124f4565b60005b8351811015611a8d576000848281518110611939577f4e487b7100000000000000000000000000000000000000000000000000000000600052603260045260246000fd5b60200260200101519050600084838151811061197e577f4e487b7100000000000000000000000000000000000000000000000000000000600052603260045260246000fd5b6020026020010151905060006002600084815260200190815260200160002060008973ffffffffffffffffffffffffffffffffffffffff1673ffffffffffffffffffffffffffffffffffffffff16815260200190815260200160002054905081811015611a20576040517f08c379a0000000000000000000000000000000000000000000000000000000008152600401611a1790614047565b60405180910390fd5b8181036002600085815260200190815260200160002060008a73ffffffffffffffffffffffffffffffffffffffff1673ffffffffffffffffffffffffffffffffffffffff168152602001908152602001600020819055505050508080611a85906145e6565b9150506118f5565b50600073ffffffffffffffffffffffffffffffffffffffff168473ffffffffffffffffffffffffffffffffffffffff168273ffffffffffffffffffffffffffffffffffffffff167f4a39dc06d4c0dbc64b70af90fd698a233a518aa5d07e595d983b8c0526c8f7fb8686604051611b05929190613f18565b60405180910390a4611b2b8185600086866040518060200160405280600081525061250a565b50505050565b600073ffffffffffffffffffffffffffffffffffffffff168473ffffffffffffffffffffffffffffffffffffffff161415611ba1576040517f08c379a0000000000000000000000000000000000000000000000000000000008152600401611b9890614207565b60405180910390fd5b6000611bab611103565b90506000611bb8856128a7565b90506000611bc5856128a7565b9050611bd6836000898585896124f4565b846002600088815260200190815260200160002060008973ffffffffffffffffffffffffffffffffffffffff1673ffffffffffffffffffffffffffffffffffffffff1681526020019081526020016000206000828254611c3691906143b5565b925050819055508673ffffffffffffffffffffffffffffffffffffffff16600073ffffffffffffffffffffffffffffffffffffffff168473ffffffffffffffffffffffffffffffffffffffff167fc3d58168c5ae7397731d063d5bbf3d657854427343f4c083240f7aacaa2d0f628989604051611cb4929190614262565b60405180910390a4611ccb8360008985858961250a565b611cda8360008989898961296d565b50505050505050565b611ceb610a4c565b15611d2b576040517f08c379a0000000000000000000000000000000000000000000000000000000008152600401611d22906140a7565b60405180910390fd5b6001600560006101000a81548160ff0219169083151502179055507f62e78cea01bee320cd4e420270b5ea74000d11b0c9f74754ebdbfc544b05a258611d6f611103565b604051611d7c9190613e19565b60405180910390a1565b6000611d958360000183612b54565b60001c905092915050565b8173ffffffffffffffffffffffffffffffffffffffff168373ffffffffffffffffffffffffffffffffffffffff161415611e0f576040517f08c379a0000000000000000000000000000000000000000000000000000000008152600401611e06906141a7565b60405180910390fd5b80600360008573ffffffffffffffffffffffffffffffffffffffff1673ffffffffffffffffffffffffffffffffffffffff16815260200190815260200160002060008473ffffffffffffffffffffffffffffffffffffffff1673ffffffffffffffffffffffffffffffffffffffff16815260200190815260200160002060006101000a81548160ff0219169083151502179055508173ffffffffffffffffffffffffffffffffffffffff168373ffffffffffffffffffffffffffffffffffffffff167f17307eab39ab6107e8899845ad3d59bd9653f200f220920489ca2b5937696c3183604051611f009190613f4f565b60405180910390a3505050565b6000611f1b82600001612ba5565b9050919050565b600073ffffffffffffffffffffffffffffffffffffffff168473ffffffffffffffffffffffffffffffffffffffff161415611f92576040517f08c379a0000000000000000000000000000000000000000000000000000000008152600401611f89906140c7565b60405180910390fd5b6000611f9c611103565b90506000611fa9856128a7565b90506000611fb6856128a7565b9050611fc68389898585896124f4565b60006002600088815260200190815260200160002060008a73ffffffffffffffffffffffffffffffffffffffff1673ffffffffffffffffffffffffffffffffffffffff1681526020019081526020016000205490508581101561205e576040517f08c379a000000000000000000000000000000000000000000000000000000000815260040161205590614147565b60405180910390fd5b8581036002600089815260200190815260200160002060008b73ffffffffffffffffffffffffffffffffffffffff1673ffffffffffffffffffffffffffffffffffffffff16815260200190815260200160002081905550856002600089815260200190815260200160002060008a73ffffffffffffffffffffffffffffffffffffffff1673ffffffffffffffffffffffffffffffffffffffff168152602001908152602001600020600082825461211591906143b5565b925050819055508773ffffffffffffffffffffffffffffffffffffffff168973ffffffffffffffffffffffffffffffffffffffff168573ffffffffffffffffffffffffffffffffffffffff167fc3d58168c5ae7397731d063d5bbf3d657854427343f4c083240f7aacaa2d0f628a8a604051612192929190614262565b60405180910390a46121a8848a8a86868a61250a565b6121b6848a8a8a8a8a61296d565b505050505050505050565b600073ffffffffffffffffffffffffffffffffffffffff168373ffffffffffffffffffffffffffffffffffffffff161415612231576040517f08c379a000000000000000000000000000000000000000000000000000000000815260040161222890614107565b60405180910390fd5b600061223b611103565b90506000612248846128a7565b90506000612255846128a7565b9050612275838760008585604051806020016040528060008152506124f4565b60006002600087815260200190815260200160002060008873ffffffffffffffffffffffffffffffffffffffff1673ffffffffffffffffffffffffffffffffffffffff1681526020019081526020016000205490508481101561230d576040517f08c379a000000000000000000000000000000000000000000000000000000000815260040161230490614047565b60405180910390fd5b8481036002600088815260200190815260200160002060008973ffffffffffffffffffffffffffffffffffffffff1673ffffffffffffffffffffffffffffffffffffffff16815260200190815260200160002081905550600073ffffffffffffffffffffffffffffffffffffffff168773ffffffffffffffffffffffffffffffffffffffff168573ffffffffffffffffffffffffffffffffffffffff167fc3d58168c5ae7397731d063d5bbf3d657854427343f4c083240f7aacaa2d0f6289896040516123db929190614262565b60405180910390a46124018488600086866040518060200160405280600081525061250a565b50505050505050565b60006124168383612bb6565b61246f578260000182908060018154018082558091505060019003906000526020600020016000909190919091505582600001805490508360010160008481526020019081526020016000208190555060019050612474565b600090505b92915050565b60007f5a05180f000000000000000000000000000000000000000000000000000000007bffffffffffffffffffffffffffffffffffffffffffffffffffffffff1916827bffffffffffffffffffffffffffffffffffffffffffffffffffffffff191614806124ed57506124ec82612bd9565b5b9050919050565b612502868686868686612c53565b505050505050565b505050505050565b6125318473ffffffffffffffffffffffffffffffffffffffff16612cb1565b156126f1578373ffffffffffffffffffffffffffffffffffffffff1663bc197c8187878686866040518663ffffffff1660e01b8152600401612577959493929190613e34565b602060405180830381600087803b15801561259157600080fd5b505af19250505080156125c257506040513d601f19601f820116820180604052508101906125bf9190613904565b60015b612668576125ce6146bc565b806308c379a0141561262b57506125e3614d57565b806125ee575061262d565b806040517f08c379a00000000000000000000000000000000000000000000000000000000081526004016126229190613f85565b60405180910390fd5b505b6040517f08c379a000000000000000000000000000000000000000000000000000000000815260040161265f90613fa7565b60405180910390fd5b63bc197c8160e01b7bffffffffffffffffffffffffffffffffffffffffffffffffffffffff1916817bffffffffffffffffffffffffffffffffffffffffffffffffffffffff1916146126ef576040517f08c379a00000000000000000000000000000000000000000000000000000000081526004016126e690613fe7565b60405180910390fd5b505b505050505050565b6127038282610c2b565b612792576127288173ffffffffffffffffffffffffffffffffffffffff166014612cd4565b6127368360001c6020612cd4565b604051602001612747929190613ddf565b6040516020818303038152906040526040517f08c379a00000000000000000000000000000000000000000000000000000000081526004016127899190613f85565b60405180910390fd5b5050565b6127a08282610c2b565b1561287357600080600084815260200190815260200160002060000160008373ffffffffffffffffffffffffffffffffffffffff1673ffffffffffffffffffffffffffffffffffffffff16815260200190815260200160002060006101000a81548160ff021916908315150217905550612818611103565b73ffffffffffffffffffffffffffffffffffffffff168173ffffffffffffffffffffffffffffffffffffffff16837ff6391f5c32d9c69d2a47ea670b442974b53935d1edc7fd64eb21e047a839171b60405160405180910390a45b5050565b600061289f836000018373ffffffffffffffffffffffffffffffffffffffff1660001b612fce565b905092915050565b60606000600167ffffffffffffffff8111156128ec577f4e487b7100000000000000000000000000000000000000000000000000000000600052604160045260246000fd5b60405190808252806020026020018201604052801561291a5781602001602082028036833780820191505090505b5090508281600081518110612958577f4e487b7100000000000000000000000000000000000000000000000000000000600052603260045260246000fd5b60200260200101818152505080915050919050565b61298c8473ffffffffffffffffffffffffffffffffffffffff16612cb1565b15612b4c578373ffffffffffffffffffffffffffffffffffffffff1663f23a6e6187878686866040518663ffffffff1660e01b81526004016129d2959493929190613e9c565b602060405180830381600087803b1580156129ec57600080fd5b505af1925050508015612a1d57506040513d601f19601f82011682018060405250810190612a1a9190613904565b60015b612ac357612a296146bc565b806308c379a01415612a865750612a3e614d57565b80612a495750612a88565b806040517f08c379a0000000000000000000000000000000000000000000000000000000008152600401612a7d9190613f85565b60405180910390fd5b505b6040517f08c379a0000000000000000000000000000000000000000000000000000000008152600401612aba90613fa7565b60405180910390fd5b63f23a6e6160e01b7bffffffffffffffffffffffffffffffffffffffffffffffffffffffff1916817bffffffffffffffffffffffffffffffffffffffffffffffffffffffff191614612b4a576040517f08c379a0000000000000000000000000000000000000000000000000000000008152600401612b4190613fe7565b60405180910390fd5b505b505050505050565b6000826000018281548110612b92577f4e487b7100000000000000000000000000000000000000000000000000000000600052603260045260246000fd5b9060005260206000200154905092915050565b600081600001805490509050919050565b600080836001016000848152602001908152602001600020541415905092915050565b60007f7965db0b000000000000000000000000000000000000000000000000000000007bffffffffffffffffffffffffffffffffffffffffffffffffffffffff1916827bffffffffffffffffffffffffffffffffffffffffffffffffffffffff19161480612c4c5750612c4b82613154565b5b9050919050565b612c618686868686866131be565b612c69610a4c565b15612ca9576040517f08c379a0000000000000000000000000000000000000000000000000000000008152600401612ca090614067565b60405180910390fd5b505050505050565b6000808273ffffffffffffffffffffffffffffffffffffffff163b119050919050565b606060006002836002612ce7919061440b565b612cf191906143b5565b67ffffffffffffffff811115612d30577f4e487b7100000000000000000000000000000000000000000000000000000000600052604160045260246000fd5b6040519080825280601f01601f191660200182016040528015612d625781602001600182028036833780820191505090505b5090507f300000000000000000000000000000000000000000000000000000000000000081600081518110612dc0577f4e487b7100000000000000000000000000000000000000000000000000000000600052603260045260246000fd5b60200101907effffffffffffffffffffffffffffffffffffffffffffffffffffffffffffff1916908160001a9053507f780000000000000000000000000000000000000000000000000000000000000081600181518110612e4a577f4e487b7100000000000000000000000000000000000000000000000000000000600052603260045260246000fd5b60200101907effffffffffffffffffffffffffffffffffffffffffffffffffffffffffffff1916908160001a90535060006001846002612e8a919061440b565b612e9491906143b5565b90505b6001811115612f80577f3031323334353637383961626364656600000000000000000000000000000000600f861660108110612efc577f4e487b7100000000000000000000000000000000000000000000000000000000600052603260045260246000fd5b1a60f81b828281518110612f39577f4e487b7100000000000000000000000000000000000000000000000000000000600052603260045260246000fd5b60200101907effffffffffffffffffffffffffffffffffffffffffffffffffffffffffffff1916908160001a905350600485901c945080612f7990614559565b9050612e97565b5060008414612fc4576040517f08c379a0000000000000000000000000000000000000000000000000000000008152600401612fbb90613fc7565b60405180910390fd5b8091505092915050565b600080836001016000848152602001908152602001600020549050600081146131485760006001826130009190614465565b90506000600186600001805490506130189190614465565b90508181146130d357600086600001828154811061305f577f4e487b7100000000000000000000000000000000000000000000000000000000600052603260045260246000fd5b90600052602060002001549050808760000184815481106130a9577f4e487b7100000000000000000000000000000000000000000000000000000000600052603260045260246000fd5b90600052602060002001819055508387600101600083815260200190815260200160002081905550505b8560000180548061310d577f4e487b7100000000000000000000000000000000000000000000000000000000600052603160045260246000fd5b60019003818190600052602060002001600090559055856001016000868152602001908152602001600020600090556001935050505061314e565b60009150505b92915050565b60007f01ffc9a7000000000000000000000000000000000000000000000000000000007bffffffffffffffffffffffffffffffffffffffffffffffffffffffff1916827bffffffffffffffffffffffffffffffffffffffffffffffffffffffff1916149050919050565b505050505050565b60006131d96131d4846142b0565b61428b565b905080838252602082019050828560208602820111156131f857600080fd5b60005b85811015613228578161320e88826132dc565b8452602084019350602083019250506001810190506131fb565b5050509392505050565b6000613245613240846142dc565b61428b565b9050808382526020820190508285602086028201111561326457600080fd5b60005b85811015613294578161327a88826133c3565b845260208401935060208301925050600181019050613267565b5050509392505050565b60006132b16132ac84614308565b61428b565b9050828152602081018484840111156132c957600080fd5b6132d4848285614517565b509392505050565b6000813590506132eb81614ded565b92915050565b600082601f83011261330257600080fd5b81356133128482602086016131c6565b91505092915050565b600082601f83011261332c57600080fd5b813561333c848260208601613232565b91505092915050565b60008135905061335481614e04565b92915050565b60008135905061336981614e1b565b92915050565b60008135905061337e81614e32565b92915050565b60008151905061339381614e32565b92915050565b600082601f8301126133aa57600080fd5b81356133ba84826020860161329e565b91505092915050565b6000813590506133d281614e49565b92915050565b600080604083850312156133eb57600080fd5b60006133f9858286016132dc565b925050602061340a858286016132dc565b9150509250929050565b600080600080600060a0868803121561342c57600080fd5b600061343a888289016132dc565b955050602061344b888289016132dc565b945050604086013567ffffffffffffffff81111561346857600080fd5b6134748882890161331b565b935050606086013567ffffffffffffffff81111561349157600080fd5b61349d8882890161331b565b925050608086013567ffffffffffffffff8111156134ba57600080fd5b6134c688828901613399565b9150509295509295909350565b600080600080600060a086880312156134eb57600080fd5b60006134f9888289016132dc565b955050602061350a888289016132dc565b945050604061351b888289016133c3565b935050606061352c888289016133c3565b925050608086013567ffffffffffffffff81111561354957600080fd5b61355588828901613399565b9150509295509295909350565b60008060006060848603121561357757600080fd5b6000613585868287016132dc565b935050602084013567ffffffffffffffff8111156135a257600080fd5b6135ae8682870161331b565b925050604084013567ffffffffffffffff8111156135cb57600080fd5b6135d78682870161331b565b9150509250925092565b600080600080608085870312156135f757600080fd5b6000613605878288016132dc565b945050602085013567ffffffffffffffff81111561362257600080fd5b61362e8782880161331b565b935050604085013567ffffffffffffffff81111561364b57600080fd5b6136578782880161331b565b925050606085013567ffffffffffffffff81111561367457600080fd5b61368087828801613399565b91505092959194509250565b6000806040838503121561369f57600080fd5b60006136ad858286016132dc565b92505060206136be85828601613345565b9150509250929050565b600080604083850312156136db57600080fd5b60006136e9858286016132dc565b92505060206136fa858286016133c3565b9150509250929050565b60008060006060848603121561371957600080fd5b6000613727868287016132dc565b9350506020613738868287016133c3565b9250506040613749868287016133c3565b9150509250925092565b6000806000806080858703121561376957600080fd5b6000613777878288016132dc565b9450506020613788878288016133c3565b9350506040613799878288016133c3565b925050606085013567ffffffffffffffff8111156137b657600080fd5b6137c287828801613399565b91505092959194509250565b600080604083850312156137e157600080fd5b600083013567ffffffffffffffff8111156137fb57600080fd5b613807858286016132f1565b925050602083013567ffffffffffffffff81111561382457600080fd5b6138308582860161331b565b9150509250929050565b60006020828403121561384c57600080fd5b600061385a8482850161335a565b91505092915050565b6000806040838503121561387657600080fd5b60006138848582860161335a565b9250506020613895858286016132dc565b9150509250929050565b600080604083850312156138b257600080fd5b60006138c08582860161335a565b92505060206138d1858286016133c3565b9150509250929050565b6000602082840312156138ed57600080fd5b60006138fb8482850161336f565b91505092915050565b60006020828403121561391657600080fd5b600061392484828501613384565b91505092915050565b60006020828403121561393f57600080fd5b600061394d848285016133c3565b91505092915050565b60006139628383613dc1565b60208301905092915050565b61397781614499565b82525050565b600061398882614349565b6139928185614377565b935061399d83614339565b8060005b838110156139ce5781516139b58882613956565b97506139c08361436a565b9250506001810190506139a1565b5085935050505092915050565b6139e4816144ab565b82525050565b6139f3816144b7565b82525050565b6000613a0482614354565b613a0e8185614388565b9350613a1e818560208601614526565b613a27816146de565b840191505092915050565b6000613a3d8261435f565b613a478185614399565b9350613a57818560208601614526565b613a60816146de565b840191505092915050565b6000613a768261435f565b613a8081856143aa565b9350613a90818560208601614526565b80840191505092915050565b6000613aa9603483614399565b9150613ab4826146fc565b604082019050919050565b6000613acc602083614399565b9150613ad78261474b565b602082019050919050565b6000613aef602883614399565b9150613afa82614774565b604082019050919050565b6000613b12601483614399565b9150613b1d826147c3565b602082019050919050565b6000613b35602b83614399565b9150613b40826147ec565b604082019050919050565b6000613b58602483614399565b9150613b638261483b565b604082019050919050565b6000613b7b602c83614399565b9150613b868261488a565b604082019050919050565b6000613b9e602983614399565b9150613ba9826148d9565b604082019050919050565b6000613bc1601083614399565b9150613bcc82614928565b602082019050919050565b6000613be4602583614399565b9150613bef82614951565b604082019050919050565b6000613c07603283614399565b9150613c12826149a0565b604082019050919050565b6000613c2a602383614399565b9150613c35826149ef565b604082019050919050565b6000613c4d603883614399565b9150613c5882614a3e565b604082019050919050565b6000613c70602a83614399565b9150613c7b82614a8d565b604082019050919050565b6000613c93603b83614399565b9150613c9e82614adc565b604082019050919050565b6000613cb6603983614399565b9150613cc182614b2b565b604082019050919050565b6000613cd96017836143aa565b9150613ce482614b7a565b601782019050919050565b6000613cfc602983614399565b9150613d0782614ba3565b604082019050919050565b6000613d1f602983614399565b9150613d2a82614bf2565b604082019050919050565b6000613d42602883614399565b9150613d4d82614c41565b604082019050919050565b6000613d65602183614399565b9150613d7082614c90565b604082019050919050565b6000613d886011836143aa565b9150613d9382614cdf565b601182019050919050565b6000613dab602f83614399565b9150613db682614d08565b604082019050919050565b613dca8161450d565b82525050565b613dd98161450d565b82525050565b6000613dea82613ccc565b9150613df68285613a6b565b9150613e0182613d7b565b9150613e0d8284613a6b565b91508190509392505050565b6000602082019050613e2e600083018461396e565b92915050565b600060a082019050613e49600083018861396e565b613e56602083018761396e565b8181036040830152613e68818661397d565b90508181036060830152613e7c818561397d565b90508181036080830152613e9081846139f9565b90509695505050505050565b600060a082019050613eb1600083018861396e565b613ebe602083018761396e565b613ecb6040830186613dd0565b613ed86060830185613dd0565b8181036080830152613eea81846139f9565b90509695505050505050565b60006020820190508181036000830152613f10818461397d565b905092915050565b60006040820190508181036000830152613f32818561397d565b90508181036020830152613f46818461397d565b90509392505050565b6000602082019050613f6460008301846139db565b92915050565b6000602082019050613f7f60008301846139ea565b92915050565b60006020820190508181036000830152613f9f8184613a32565b905092915050565b60006020820190508181036000830152613fc081613a9c565b9050919050565b60006020820190508181036000830152613fe081613abf565b9050919050565b6000602082019050818103600083015261400081613ae2565b9050919050565b6000602082019050818103600083015261402081613b05565b9050919050565b6000602082019050818103600083015261404081613b28565b9050919050565b6000602082019050818103600083015261406081613b4b565b9050919050565b6000602082019050818103600083015261408081613b6e565b9050919050565b600060208201905081810360008301526140a081613b91565b9050919050565b600060208201905081810360008301526140c081613bb4565b9050919050565b600060208201905081810360008301526140e081613bd7565b9050919050565b6000602082019050818103600083015261410081613bfa565b9050919050565b6000602082019050818103600083015261412081613c1d565b9050919050565b6000602082019050818103600083015261414081613c40565b9050919050565b6000602082019050818103600083015261416081613c63565b9050919050565b6000602082019050818103600083015261418081613c86565b9050919050565b600060208201905081810360008301526141a081613ca9565b9050919050565b600060208201905081810360008301526141c081613cef565b9050919050565b600060208201905081810360008301526141e081613d12565b9050919050565b6000602082019050818103600083015261420081613d35565b9050919050565b6000602082019050818103600083015261422081613d58565b9050919050565b6000602082019050818103600083015261424081613d9e565b9050919050565b600060208201905061425c6000830184613dd0565b92915050565b60006040820190506142776000830185613dd0565b6142846020830184613dd0565b9392505050565b60006142956142a6565b90506142a182826145b5565b919050565b6000604051905090565b600067ffffffffffffffff8211156142cb576142ca61468d565b5b602082029050602081019050919050565b600067ffffffffffffffff8211156142f7576142f661468d565b5b602082029050602081019050919050565b600067ffffffffffffffff8211156143235761432261468d565b5b61432c826146de565b9050602081019050919050565b6000819050602082019050919050565b600081519050919050565b600081519050919050565b600081519050919050565b6000602082019050919050565b600082825260208201905092915050565b600082825260208201905092915050565b600082825260208201905092915050565b600081905092915050565b60006143c08261450d565b91506143cb8361450d565b9250827fffffffffffffffffffffffffffffffffffffffffffffffffffffffffffffffff03821115614400576143ff61462f565b5b828201905092915050565b60006144168261450d565b91506144218361450d565b9250817fffffffffffffffffffffffffffffffffffffffffffffffffffffffffffffffff048311821515161561445a5761445961462f565b5b828202905092915050565b60006144708261450d565b915061447b8361450d565b92508282101561448e5761448d61462f565b5b828203905092915050565b60006144a4826144ed565b9050919050565b60008115159050919050565b6000819050919050565b60007fffffffff0000000000000000000000000000000000000000000000000000000082169050919050565b600073ffffffffffffffffffffffffffffffffffffffff82169050919050565b6000819050919050565b82818337600083830152505050565b60005b83811015614544578082015181840152602081019050614529565b83811115614553576000848401525b50505050565b60006145648261450d565b915060008214156145785761457761462f565b5b600182039050919050565b6000600282049050600182168061459b57607f821691505b602082108114156145af576145ae61465e565b5b50919050565b6145be826146de565b810181811067ffffffffffffffff821117156145dd576145dc61468d565b5b80604052505050565b60006145f18261450d565b91507fffffffffffffffffffffffffffffffffffffffffffffffffffffffffffffffff8214156146245761462361462f565b5b600182019050919050565b7f4e487b7100000000000000000000000000000000000000000000000000000000600052601160045260246000fd5b7f4e487b7100000000000000000000000000000000000000000000000000000000600052602260045260246000fd5b7f4e487b7100000000000000000000000000000000000000000000000000000000600052604160045260246000fd5b600060033d11156146db5760046000803e6146d86000516146ef565b90505b90565b6000601f19601f8301169050919050565b60008160e01c9050919050565b7f455243313135353a207472616e7366657220746f206e6f6e204552433131353560008201527f526563656976657220696d706c656d656e746572000000000000000000000000602082015250565b7f537472696e67733a20686578206c656e67746820696e73756666696369656e74600082015250565b7f455243313135353a204552433131353552656365697665722072656a6563746560008201527f6420746f6b656e73000000000000000000000000000000000000000000000000602082015250565b7f5061757361626c653a206e6f7420706175736564000000000000000000000000600082015250565b7f455243313135353a2062616c616e636520717565727920666f7220746865207a60008201527f65726f2061646472657373000000000000000000000000000000000000000000602082015250565b7f455243313135353a206275726e20616d6f756e7420657863656564732062616c60008201527f616e636500000000000000000000000000000000000000000000000000000000602082015250565b7f455243313135355061757361626c653a20746f6b656e207472616e736665722060008201527f7768696c65207061757365640000000000000000000000000000000000000000602082015250565b7f455243313135353a2063616c6c6572206973206e6f74206f776e6572206e6f7260008201527f20617070726f7665640000000000000000000000000000000000000000000000602082015250565b7f5061757361626c653a2070617573656400000000000000000000000000000000600082015250565b7f455243313135353a207472616e7366657220746f20746865207a65726f20616460008201527f6472657373000000000000000000000000000000000000000000000000000000602082015250565b7f455243313135353a207472616e736665722063616c6c6572206973206e6f742060008201527f6f776e6572206e6f7220617070726f7665640000000000000000000000000000602082015250565b7f455243313135353a206275726e2066726f6d20746865207a65726f206164647260008201527f6573730000000000000000000000000000000000000000000000000000000000602082015250565b7f455243313135355072657365744d696e7465725061757365723a206d7573742060008201527f68617665206d696e74657220726f6c6520746f206d696e740000000000000000602082015250565b7f455243313135353a20696e73756666696369656e742062616c616e636520666f60008201527f72207472616e7366657200000000000000000000000000000000000000000000602082015250565b7f455243313135355072657365744d696e7465725061757365723a206d7573742060008201527f686176652070617573657220726f6c6520746f20756e70617573650000000000602082015250565b7f455243313135355072657365744d696e7465725061757365723a206d7573742060008201527f686176652070617573657220726f6c6520746f20706175736500000000000000602082015250565b7f416363657373436f6e74726f6c3a206163636f756e7420000000000000000000600082015250565b7f455243313135353a2073657474696e6720617070726f76616c2073746174757360008201527f20666f722073656c660000000000000000000000000000000000000000000000602082015250565b7f455243313135353a206163636f756e747320616e6420696473206c656e67746860008201527f206d69736d617463680000000000000000000000000000000000000000000000602082015250565b7f455243313135353a2069647320616e6420616d6f756e7473206c656e6774682060008201527f6d69736d61746368000000000000000000000000000000000000000000000000602082015250565b7f455243313135353a206d696e7420746f20746865207a65726f2061646472657360008201527f7300000000000000000000000000000000000000000000000000000000000000602082015250565b7f206973206d697373696e6720726f6c6520000000000000000000000000000000600082015250565b7f416363657373436f6e74726f6c3a2063616e206f6e6c792072656e6f756e636560008201527f20726f6c657320666f722073656c660000000000000000000000000000000000602082015250565b600060443d1015614d6757614dea565b614d6f6142a6565b60043d036004823e80513d602482011167ffffffffffffffff82111715614d97575050614dea565b808201805167ffffffffffffffff811115614db55750505050614dea565b80602083010160043d038501811115614dd2575050505050614dea565b614de1826020018501866145b5565b82955050505050505b90565b614df681614499565b8114614e0157600080fd5b50565b614e0d816144ab565b8114614e1857600080fd5b50565b614e24816144b7565b8114614e2f57600080fd5b50565b614e3b816144c1565b8114614e4657600080fd5b50565b614e528161450d565b8114614e5d57600080fd5b5056fea2646970667358221220d4539d93a85e8c3814807b375979077d2b4d8d2641337f476df9150737a702a464736f6c63430008040033",
  "linkReferences": {},
  "deployedLinkReferences": {}
}